:020000040800F2
:1000000000500020190400083D02000841020008C9
:1000100045020008490200084D02000800000000E7
:100020000000000000000000000000005502000871
:100030005102000800000000590200085D0200089B
:100040005D0400085D0400085D0400085D0400080C
:100050005D0400085D0400085D0400085D040008FC
:100060005D0400085D0400085D0400085D040008EC
:100070005D0400085D0400085D0400085D040008DC
:100080005D0400085D0400085D0400085D040008CC
:100090005D0400085D0400085D0400085D040008BC
:1000A0005D0400085D0400085D0400085D040008AC
:1000B000C5020008610200085D0400085D04000834
:1000C0005D0400085D0400085D0400085D0400088C
:1000D0005D0400085D0400085D0400085D0400087C
:1000E0005D0400085D0400085D04000800000000D5
:1000F0000000000000000000000000000000000000
:0C01000000000000000000005FF808F1A3
:10010C002DE97043394C96B000F000F94FF41653BA
:10011C002146009313A84FF48062A3F5EC5300F032
:10012C00C5FC4FF040020023ADF80A204FF480527A
:10013C008DF81630ADF814208DF826308DF8363049
:10014C004FF080024FF4807303940494ADF81A209E
:10015C0007940894ADF82A300B94254B0C944FF46B
:10016C00005202AC01264FF00209ADF824204FF0EA
:10017C0003084FF4804220460E93ADF834208DF8DE
:10018C0008608DF818908DF8288000F0FBFC204654
:10019C0000F0CCFC04F1200504F1100000F0C6FCCA
:1001AC00284600F0C3FC20463146324600F0CEFC17
:1001BC0020464946324600F0C9FC204641463246AC
:1001CC0000F0C4FC04230B49102200930FA80A4B27
:1001DC0000F056FD284600F0A9FC3C2000F01AF86F
:1001EC00284600F0A3FC16B0BDE87083000C01405B
:1001FC0000080040000801400024014082B001903A
:10020C0002E0019B013B0193019B002BF9D102B051
:10021C007047C046054B4FF47A721B6810B5B3FBA0
:10022C00F2F35843FFF7EAFF10BDC0460000002070
:10023C007047C046FEE7C046FEE7C046FEE7C04634
:10024C00FEE7C0467047C0467047C0467047C04680
:10025C007047C046012110B5134800F04BFA134A01
:10026C00136801331360124A03EA0202002A05DA0A
:10027C00013A6FEAC2726FEAD2720132012A09D1D5
:10028C0020210C4800F08EFA0A484FF4807100F0DF
:10029C0089FA08E00748202100F086FA05484FF457
:1002AC00807100F081FA10BD00040040280000208D
:1002BC0001000080000C0140012110B54FF080407E
:1002CC0000F018FA0E4A5368013353600D4A03EAE2
:1002DC000202002A05DA013A6FEAC2726FEAD272A0
:1002EC000132012A05D108484FF4007100F05AFA86
:1002FC0004E005484FF4007100F056FA10BDC046FA
:10030C002800002001000080000C01403B4A82B014
:10031C00136843F0010313605168394B01EA03037E
:10032C005360136823F0847323F4803313601368D1
:10033C0023F480231360536823F4FE0353604FF4BB
:10034C001F039360A3F51F0301930093136843F4F9
:10035C0080331360294B1B6803F400330093019B1B
:10036C0001330193009B1BB9019BB3F5A06FF1D135
:10037C00224B1B6813F4003318BF01230093009B1E
:10038C00012B35D11F4A136843F010031360136817
:10039C0023F003031360136843F002031360A2F508
:1003AC0080525368536053685360536843F48063BE
:1003BC005360536823F47C135360536843F48813DD
:1003CC005360136843F0807313600C4A136813F086
:1003DC00007FFAD0536823F003035360536843F053
:1003EC0002035360054B5B6803F00C03082BF9D137
:1003FC00054B4FF000629A6002B07047001002404B
:10040C000000FFF80020024000ED00E0002103E0B6
:10041C000A4B5B584350043109480A4B42189A4224
:10042C00F6D3094A02E0002342F8043B074B9A42F8
:10043C00F9D3FFF76BFFFFF763FE7047440D00081D
:10044C000000002028000020280000205000002080
:10045C00FEE7000003889AB2244B984212D003F5B1
:10046C00006398420ED0B0F1804F0BD0A3F59833B7
:10047C00984207D003F58063984203D003F580635C
:10048C00984206D14FF68F7302EA03034A8843EA77
:10049C000202174B98420AD003F58063984206D0AB
:1004AC004FF6FF4302EA0303CA8843EA02020280C2
:1004BC008B8883850B8803850C4B98420FD003F5F2
:1004CC00006398420BD003F54063984207D003F5C4
:1004DC008063984203D003F58063984201D10B7A74
:1004EC0003864FF0010383827047C046002C014005
:1004FC0000100040038CF0B523F001031B041B0C0F
:10050C0003840C46018C838822899DB2038B21F0D5
:10051C0002019EB2638809041343090C9BB243EA9F
:10052C00010C1B4B278898420FD003F500639842AF
:10053C000BD003F54063984207D003F580639842D3
:10054C0003D003F58063984216D163894FF6F77296
:10055C000CEA02021A434FF6FB7302EA0303A28869
:10056C004FF6FF4143EA020CE389A28905EA010137
:10057C0013439BB243EA01054FF68C7306EA03035F
:10058C003B4385800383E3888386A0F820C0F0BDBD
:10059C00002C0140038C70B523F010031B041B0CC2
:1005AC000384038C828823F0200394B2028B1B04F7
:1005BC0095B20A891B0C43EA02134A889BB243EAA0
:1005CC0002131FFA83FC194B0E88984203D003F5D3
:1005DC00006398421BD14B894FF67F720CEA0202E2
:1005EC0042EA03124FF6BF7302EA03038A8843EA16
:1005FC0002131FFA83FC8A894FF2FF3304EA0303C8
:10060C0043EA8203CA899BB243EA82039CB248F64E
:10061C00FF4305EA030343EA06239BB2848003836A
:10062C00CB880387A0F820C070BDC046002C0140C9
:10063C00038C70B523F480731B041B0C0384038C94
:10064C00828823F4007394B2828B1B0495B20A89BE
:10065C001B0C43EA02234A889BB243EA02231FFA8B
:10066C0083FC184B0E88984203D003F50063984224
:10067C001BD14B894FF2FF720CEA020242EA0322B1
:10068C004FF6FF3302EA03038A8843EA02231FFA78
:10069C0083FC8A894CF6FF7304EA030343EA0213D2
:1006AC00CA899BB243EA02139CB24FF68C7305EADB
:1006BC000303334384808383CB888387A0F820C0D3
:1006CC0070BDC046002C014021B103889BB243F0A1
:1006DC00010304E0038823F001031B041B0C0380BB
:1006EC007047C046038B23F008031B041B0C1943F3
:1006FC0001837047C94389B201827047F0B5CD7848
:10070C000E8815F0100F18BF8B7805F00F0718BF67
:10071C001F4316F0FF0F20D004684FF0000C01238C
:10072C0003FA0CF303EA0601994210D14FEA8C024A
:10073C000F23934017FA02F224EA0303282D43EA0D
:10074C00020401D1416102E0482D08BF01610CF1A6
:10075C00010CBCF1080FE2D10460FF2E21D94468D2
:10076C004FF0000C01230CF10802934003EA060140
:10077C00994210D14FEA8C020F23934017FA02F2E0
:10078C0024EA0303282D43EA020401D1416102E06B
:10079C00482D08BF01610CF1010CBCF1080FE1D12F
:1007AC004460F0BD01617047416170470AB101615D
:1007BC0000E041617047C04621B183899BB243F48C
:1007CC00005304E0838923F400531B041B0C838126
:1007DC007047C046C905C90D81807047038819420E
:1007EC000CBF002001207047038ACA8823F44053B1
:1007FC001B041B0C1343038282890B8930B50D46F5
:10080C00898822F4B0520B43698922F00C020B4305
:10081C001204120C9BB213438381838AAA8923F49A
:10082C0040731B041B0C87B013430446838201A83E
:10083C0000F0C4F8184B29689C42A38908BF04989F
:10084C001BB218BF0398002B03DA192343434A0049
:10085C0002E0192343438A00B3FBF2F16420B1FB9D
:10086C00F0F31A01130900FB1311A3891BB2002B1F
:10087C0006DACB003233B3FBF0F303F0070305E0E9
:10088C000B013233B3FBF0F303F00F0343EA020125
:10089C008BB2238107B030BD0038014043680A6831
:1008AC0023F4702323F4807313430A7910B543EABD
:1008BC0002234360CB688A6884681A43084B04EAB5
:1008CC0003031A434B7942EA430282600B7CC26AEF
:1008DC00013B22F47002DBB242EA0352C26210BD49
:1008EC00FDF7F1FF19B1836843F0010302E083685F
:1008FC0023F0010383607047836843F0080383602F
:10090C007047C0468068C0F3C0007047836843F0EE
:10091C00040383607047C0468068C0F38000704752
:10092C00092930B594460C461D460CD90322624366
:10093C0007231E3A934015FA02F2C16821EA03011B
:10094C001143C1600AE0032262430723934015FA66
:10095C0002F2016921EA030111430161BCF1060FA6
:10096C000DD8052202FB0CF21F23053A934014FA12
:10097C0002F2416B21EA0301114341631DE0BCF11A
:10098C000C0F0DD8052202FB0CF21F23233A9340C7
:10099C0014FA02F2016B21EA0301114301630CE02A
:1009AC00052202FB0CF21F23413A934014FA02F287
:1009BC00C16A21EA03011143C16230BD10B504467E
:1009CC001E48436803F00C03042B02D0082B14D1EF
:1009DC0001E01B4B12E043684268C3F38343991C4C
:1009EC0012F4803F01D1174B05E0436813F4003F2C
:1009FC0014BF154B124B4B4300E0144B0F482360B4
:100A0C0043681349C3F30313CB5C2268DA4062607A
:100A1C004368C3F30223CB5C32FA03F3A36043684D
:100A2C00C3F3C223CB5CDA40E2604368C3F3813387
:100A3C00C9180B7CB2FBF3F2226110BD001002400E
:100A4C00001BB70000093D00808D5B0000127A008E
:100A5C001400002021B1054A936940EA030303E026
:100A6C00024A936923EA0003936170470010024025
:100A7C0021B1054AD36940EA030303E0024AD36972
:100A8C0023EA0003D36170470010024010B50446FE
:100A9C00E1B20548FFF79EFE03488021FFF79EFE5A
:100AAC000028F9D0204610BD0048004070B5082041
:100ABC0086B00D46012114461E46FFF7CBFF0121DF
:100ACC004FF48020FFF7D4FFADF81440032305AC9E
:100ADC008DF816302846153321468DF81730FFF760
:100AEC000DFE0423284621468DF81730ADF814600E
:100AFC00FFF704FE0A9B0C4C01930023ADF8083061
:100B0C00ADF80A30ADF80C30ADF8103020464FF08F
:100B1C000C0301A9ADF80E30FFF766FE204601214B
:100B2C00FFF74AFE06B070BD0048004010B5827B4E
:100B3C000446418822B94068FFF738FE012303E0E0
:100B4C004068FFF72FFE0023A37310BD022910B5D8
:100B5C0009D003290DD0012910D10949006BCA8095
:100B6C00FFF7C8FC0AE00649006BCA80FFF712FDCC
:100B7C0004E00349006BCA80FFF75AFD10BDC04664
:100B8C003E000020026B384B73B59A42064602D1E8
:100B9C0040F6040011E0B2F1804F01D1052014E0C1
:100BAC00324B9A4201D106200FE0314B9A4208D1C8
:100BBC0004200121FFF75CFF08200121FFF74AFF09
:100BCC0006E02C4B9A4203D10C200121FFF750FF79
:100BDC0001200146FFF73EFFB289B38B01AD1343F1
:100BEC00B28D03241343ADF80430B06818232946A2
:100BFC008DF807308DF80640FFF780FD7288738AF8
:100C0C0070681343728C29461343ADF804301023DB
:100C1C008DF807308DF80640FFF770FD164940F24D
:100C2C00E7338B804FF047030B804FF00003CB80F2
:100C3C004B80306BFFF70EFC10494FF060030B80BC
:100C4C004FF001034B804FF00003CB800B81306BD6
:100C5C00FFF750FC306B0821FFF744FD04480121DD
:100C6C00FFF732FD7CBDC046002C01400004004063
:100C7C0000080040000C0040340000203E00002022
:100C8C00F0B587B09DF830701D468360264B0E463C
:100C9C009D42144601608280077302D14FF40070AC
:100CAC000AE0224B9D4202D14FF4806004E0204BBD
:100CBC009D4204D14FF400400121FFF7CBFEADF86B
:100CCC0014403046002405A98DF81740FFF716FD97
:100CDC004FF4602300948DF804408DF80540039484
:100CEC0028460134694602938DF81040FFF7D6FD73
:100CFC002846394622460223FFF712FE2846214693
:100D0C00FFF7F0FD2846FFF7F7FD2846FFF7FAFD41
:100D1C000028FAD12846FFF7F9FD2846FFF7FCFD1D
:100D2C000028FAD107B0F0BD002401400028014092
:080D3C00003C0140101C70474F
:100D440000A24A04000000000000000001020304A5
:100D5400060708090000000001020304010203045D
:080D6400060708090204060855
:040000050800010CE2
:00000001FF
